:020000040800F2
:1000000070130020A101000845540008613B00085E
:10001000BD4C00083D0400083F6C000800000000D3
:10002000000000000000000000000000C95C0008A3
:100030003F0800080000000049540008DD5D00088A
:10004000BB010008BB010008BB010008BB010008A0
:10005000BB010008BB010008BB010008BB01000890
:10006000BB010008BB010008BB01000889070008AC
:10007000BB010008BB010008BB010008BB01000870
:10008000BB010008BB010008BB010008BB01000860
:1000900081040008BB010008BB010008BB01000887
:1000A000BB010008BD5E0008BB010008BB010008E1
:1000B000E55E0008F95E0008BB010008BB0100080E
:1000C000BB010008BB010008BB010008BB01000820
:1000D000BB010008BB010008BB010008BB01000810
:1000E000BB010008BB010008BB010008815E0008DD
:1000F000955E0008A95E00080000000000000000F6
:1001000000000000000000000D5F0008BB010008B7
:100110000000000000000000BB010008BB01000857
:10012000BB010008BB010008BB010008BB010008BF
:10013000BB010008BB010008BB010008BB010008AF
:10014000BB010008000000000000000000000000EB
:10015000000000000000000000000000000000009F
:100160000000000000000000BB010008BB01000807
:10017000BB01000800000000D15E00080000000084
:1001800000000000BB010008DFF810D000F08EF87E
:10019000004800479D6C0008AFF3008070130020FA
:1001A0000648804706480047FEE7FEE7FEE7FEE711
:1001B000FEE7FEE7FEE7FEE7FEE7FEE76D5E00080E
:1001C000890100082DE9F05F0546002092469B4614
:1001D00088460646814640241BE02846414647465D
:1001E000224600F020F853465A46C01A914110D3D7
:1001F00011461846224600F04AF82D1A67EB01080E
:100200004F4622460120002100F041F817EB00097B
:100210004E41201EA4F10104DFDC484631462A4647
:100220004346BDE8F09F202A04DB203A21FA02F081
:100230000021704721FA02F3D040C2F12002914020
:1002400008431946704740EA01039B0703D009E0C1
:1002500008C9121F08C0042AFAD203E011F8013BB2
:1002600000F8013B521EF9D27047D2B201E000F80B
:10027000012B491EFBD270470022F6E710B513464A
:100280000A4604461946FFF7F0FF204610BD202A13
:1002900004DB203A00FA02F1002070479140C2F1DD
:1002A000200320FA03F3194390407047064C074D92
:1002B00006E0E06840F0010394E807009847103436
:1002C000AC42F6D3FFF764FFE86E0008086F000841
:1002D00070B5044600252068806800F0010018B35E
:1002E0002068806820F001002168886001F0C2FC6D
:1002F000054613E001F0BEFC401B02280ED9206821
:10030000806800F0010048B1A06A40F01000A062CF
:10031000E06A40F00100E062012070BD2068806862
:1003200000F001000028E5D10020F6E770B5054691
:100330006C6AA06A00F05000E0B9A06A40F4007056
:10034000A0622068806800F46020B0F5602F0DD1B5
:10035000207B58B9A06A20F48070A062A06A00F4E3
:10036000805018B9A06A40F00100A062204600F059
:10037000D7FB03E0206A016B2846884770BD70B543
:1003800005466C6AA06A40F04000A062E06A40F056
:100390000400E062204600F0C5FB70BD70B5044665
:1003A000656A284600F0BDFB70BD000038B5044604
:1003B0000025002000902068806800F0010078BBD4
:1003C0002068806840F00100216888601948006852
:1003D0001949B0FBF1F0009002E00098401E009037
:1003E00000980028F9D101F045FC054619E001F01C
:1003F00041FC401B022814D92068806800F00100ED
:1004000078B9A06A40F01000A062E06A40F00100F4
:10041000E06200BF002084F8240000BF012038BD46
:1004200005E02068806800F001000028DFD000208F
:10043000F5E700000C00002040420F0000BFFEE77F
:1004400070B588B004460D4616460296002004900A
:10045000059006958DF81C0000BF084800F0DCFEF2
:100460000028FAD001AB224602A9044800F0DFFCC4
:1004700008B100F004FA08B070BD0000480A00207E
:1004800010B5034800F014F9014800F0E0FE10BD7B
:10049000480A002000B587B0182101A8FFF7ECFE3C
:1004A00001A97C4800F0AEF900280DD09DF8140099
:1004B00008280AD19DF81500012806D1BDF81600BC
:1004C0007549088004F064FEDFE09DF814000828F8
:1004D00006D19DF81500052802D105F0F7FBD4E000
:1004E0009DF8140008280CD19DF81500022808D1A9
:1004F0009DF8160028B900224021684801F0B4FB9D
:10050000C3E09DF8140008280CD19DF815000228BE
:1005100008D19DF8160028B1012240215F4801F062
:10052000A3FBB2E09DF8140008280BD19DF815003C
:10053000032807D19DF81600082803DC05A803F05E
:1005400011FBA2E09DF8140008280BD19DF81500BE
:10055000042807D19DF81600082803DC05A804F03C
:10056000EBFE92E09DF8140008280BD19DF81500D1
:10057000072807D19DF81600082803DC05A800F01D
:10058000E5F882E09DF81400082815D19DF81500C3
:10059000062811D19DF8160001280DD19DF81700ED
:1005A0003F4908609DF81800096841EA00203C496D
:1005B000086004F0EDFD68E09DF81400082815D1EE
:1005C0009DF81500062811D19DF8160002280DD1BE
:1005D0009DF81700334908609DF81800096841EA42
:1005E00000203049086004F0D3FD4EE09DF814006F
:1005F000082823D19DF8150006281FD19DF8160064
:1006000003281BD19DF81700274908609DF81800A2
:10061000096841EA0020244908609DF8190009682A
:1006200041EA0040204908609DF81A00096841EA43
:1006300000601D49086004F0ABFD26E09DF8140041
:10064000082822D19DF8150006281ED19DF8160015
:1006500004281AD19DF81700144908609DF8180065
:10066000096841EA0020114908609DF819000968ED
:1006700041EA00400D4908609DF81A00096841EA06
:1006800000600A49086004F083FD04F0BDFD00200D
:1006900007B000BDC0000020180000200014004872
:1006A00010000020140000201C000020200000206A
:1006B00010B58CB004460020039004902068406977
:1006C00000F00200F0B11BE02068C06800F00300F9
:1006D00000B916E003AB05AA0021204600F0D2FCC9
:1006E00070B903AA084905A800F012F8064A0C32AE
:1006F00007CA8DE8070004480EC8044800F0A0F8B7
:10070000E2E700BF0CB010BD300A0020C00000209E
:1007100030B513460022846814B904680C6004E004
:100720008468042C01D144680C6084684C60C468FF
:100730008C600469CC60002204E09D5C01F110042F
:10074000A554521C04699442F7D830BD70B50446D4
:10075000A07870B9012509E0E2780AB1012200E031
:1007600000221146E8B204F01DFB6D1C092DF3DBDD
:1007700008E0E2780AB1012200E000221146A078E8
:1007800004F010FB70BD000010B5024801F084F8C1
:1007900010BD00007C0000200D4A016891420BD280
:1007A0000C4A0168891A1422B1FBF2F18900016434
:1007B00008490839C1630AE0054A0168891A142208
:1007C000B1FBF2F18900016401490839C163704746
:1007D000080402400800024030B590F8405001245F
:1007E000AC40C56B6C60046863604468102C04D135
:1007F0000468A2600468E16003E00468A160046822
:10080000E26030BD70B504460D46204604F01DFE82
:1008100008B1002070BD226802EB4202E06800EBE4
:10082000C20118222846FFF70EFD2068401CA1686F
:10083000B0FBF1F201FB120020600120EAE77047F3
:100840000FB410B50446204604F008FE18B100208D
:1008500010BC5DF814FB626802EB4202E16801EB38
:10086000C200182203A9FFF7EEFC6068401CA168D3
:10087000B0FBF1F201FB120060600120E8E772B604
:1008800000BFFEE770B50546002440210C4801F08A
:10089000E3F9044380210A4801F0DEF944EA400408
:1008A0004FF48071064801F0D7F944EA80044FF410
:1008B0000071034801F0D0F944EAC004281970BD62
:1008C00000080048F8B5044600260020009000BF4C
:1008D00094F82400012801D10220F8BD012084F8F9
:1008E000240000BF2046FFF7F3FC0646002E65D12A
:1008F000A06A20F4885040F00200A06202E0009854
:10090000401C00900098FF28F9D92046FFF74EFDC3
:100910002068806840F008002168886001F0AAF92A
:10092000054617E001F0A6F9401B0A2812D92068F5
:10093000806800F0080008280CD1A06A20F00200AE
:1009400040F01000A06200BF002084F8240000BF27
:100950000120C2E72068806800F008000828E1D084
:100960002068806840F004002168886001F082F906
:10097000054617E001F07EF9401B0A2812D92068CD
:10098000806800F0040004280CD1A06A20F0020066
:1009900040F01000A06200BF002084F8240000BFD7
:1009A00001209AE72068806800F004000428E1D064
:1009B000A06A20F0020040F00100A06200BF002009
:1009C00084F8240000BF304687E7000038B50246AF
:1009D00000230020009000BF92F82400012801D1DC
:1009E000022038BD012082F8240000BF4868072893
:1009F00012D21068406B0C79641E04EB84051F242E
:100A0000AC40A0430D796D1E05EB85050C68AC402C
:100A100020431468606327E048680D2812D21068EC
:100A2000006B0C79E41F04EB84051F24AC40A04349
:100A30000D79ED1F05EB85050C68AC40204314686B
:100A4000206311E01068C06A0C790D3C04EB84054A
:100A50001F24AC40A0430D790D3D05EB85050C68C6
:100A6000AC4020431468E06208680A2812D9106874
:100A7000C0680C780A3C04EB44050724AC40A04352
:100A80000D780A3D05EB45058C68AC4020431468A1
:100A9000E0600FE0106800690C7804EB440507245F
:100AA000AC40A0430D7805EB45058C68AC40204375
:100AB000146820610868102802D00868112819D12C
:100AC0001068806840F400001468A060086810286E
:100AD00019D110480068104CB0FBF4F000EB800016
:100AE0004000009002E00098401E0090009800280E
:100AF000F9D108E00868122805D10848006840F0DC
:100B00008070064C206000BF002082F8240000BFE7
:100B1000184666E70C00002040420F00000001402C
:100B200070477047704700002DE9F04104460027E8
:100B300000250026A84614B90120BDE8F081A06870
:100B400010B1207D00B100BFA06A30B90020E06282
:100B500084F82400204600F089F82046FFF7B8FB0F
:100B60000746A06A00F01000002873D1002F71D151
:100B7000A06A20F4885040F00200A062E169606839
:100B80000843217B40EA41000643A068B0F5807F1E
:100B900002D0A068012802D14FF4807000E000204C
:100BA0000543207D012811D1207B38B9A069401E62
:100BB0004FF4006141EA4030054307E0A06A40F08D
:100BC0002000A062E06A40F00100E0622068406816
:100BD00020F46940284321684860206880682149E2
:100BE0000840304321688860A068B0F5807F02D05B
:100BF000A068012802D14FF4807000E00020B0F519
:100C0000807F03D1208A401E4FEA00582068C06AC6
:100C100020F4700040EA08002168C86220688068FB
:100C200011490840B04208D10020E062A06A20F0DB
:100C3000020040F00100A06211E0A06A20F0020072
:100C400040F01000A062E06A40F00100E06201277D
:100C500005E0FFE7A06A40F01000A06201273846D7
:100C60006BE70000FDF7E1FFFE0E1FFF10B586B039
:100C70000446142101A8FFF7FFFA2449206888429E
:100C800041D100BF2248806940F40070204988614A
:100C90000846806900F40070009000BF00BF00BFEC
:100CA0000846406940F4003048610846406900F455
:100CB0000030009000BF00BF0C2001900320029084
:100CC0000020039001A94FF0904000F0E5FE11488C
:100CD000114908600020486000210F488160802190
:100CE000C1604900016189004161202181610902DF
:100CF000C16100F044FE08B1FFF7C1FD00BF064826
:100D00002062446200BF06B010BD00000024014014
:100D100000100240080002407C0000202DE9F04154
:100D200004460D461646002700BF94F8240001280B
:100D300002D10220BDE8F081012084F8240000BF28
:100D40002046FFF733FB0746002F52D1A06A40F23E
:100D50000121884340F48070A0622068406800F45C
:100D6000806028B1A06A20F4005040F48050A06256
:100D7000A06A00F48050B0F5805F04D1E06A20F0F2
:100D80000600E06201E00020E06200BF002084F87D
:100D9000240000BF1848216A88621848216AC86286
:100DA0001748216A08636FF0020021680860206814
:100DB000806840F4807021688860226802F14C01EC
:100DC00033462A46206A00F005FE2068806800F459
:100DD0006020B0F5602F06D12068806840F4A00044
:100DE0002168886005E02068806840F480102168F0
:100DF000886038469EE700002D0300089D03000828
:100E00007F03000810B5024692F82030012B01D074
:100E1000022B06D110684069084314686061002005
:100E200010BD506A40F4802050620120F8E7F0B510
:100E300004460D461E4694F8207020688368A86812
:100E400000B900E000BF012F01D0022F7DD103F0D7
:100E5000806030B903F0006018B903F080500028BA
:100E60007ED0C3F30161012088403060A86860B97A
:100E7000B5F800C0E86840EA4C5C206800F5C07036
:100E800000EB0110C0F800C00FE0D5E901C040EA56
:100E9000CC00D5F80CC040EA0C00D4F800C00CF52A
:100EA000C07C0CEB011CCCF80000D5F810C0206809
:100EB00000F5C07000EB0110C0F804C0287D0128C7
:100EC0000ED1206800F5C07000EB0110406840F4BE
:100ED000807C206800F5C07000EB0110C0F804C0F1
:100EE000D079000692F806C040EA0C4092F805C09E
:100EF00040EA0C2092F804C040EA0C00D4F800C08C
:100F00000CF5C07C0CEB011CCCF80C00D078000672
:100F100092F802C040EA0C4092F801C040EA0C206E
:100F200092F800C040EA0C00D4F800C00CF5C07C78
:100F30000CEB011CCCF80800206800F5C07000EB39
:100F40000110006840F0010C01E00FE008E02068AB
:100F500000F5C07000EB0110C0F800C00020F0BD2B
:100F6000606A40F4001060620120F8E7606A40F4B3
:100F7000802060620120F2E7F0B504460A4621684D
:100F800094F82050012D01D0022D74D1D1F8000227
:100F900040F00100C1F80002107D00F01F060120A2
:100FA00000FA06F3D1F81C029843C1F81C02D0697C
:100FB000C8B9D1F80C029843C1F80C02908880B2ED
:100FC000968940EA064601F51070576940F8376087
:100FD000108880B2168940EA064601F510705769FC
:100FE00000EBC7004660D069012819D1D1F80C0286
:100FF0001843C1F80C02908880B2168840EA064671
:1010000001F51070576940F83760908980B21689F1
:1010100040EA064601F51070576900EBC7004660CC
:10102000906928B9D1F804029843C1F8040204E099
:10103000D1F804021843C1F80402106928B9D1F8A4
:1010400014029843C1F8140204E0D1F814021843C2
:10105000C1F81402106A012804D1D1F81C02184307
:10106000C1F81C02D1F8000220F00100C1F8000212
:101070000020F0BDFFE7606A40F48020606201203C
:10108000F7E7704770B5044694F82050012D01D061
:10109000022D7DD151B92068C06800F0030080B9ED
:1010A000606A40F400106062012070BD2068006931
:1010B00000F0030028B9606A40F40010606201206B
:1010C000F3E7206800F5D87000EB0110006800F02D
:1010D00004009060906840B9206800F5D87000EB7B
:1010E00001100068400D106007E0206800F5D8701E
:1010F00000EB01100068C0085060206800F5D8704F
:1011000000EB0110006800F00200D060206800F5DC
:10111000D87000EB0110406800F00F00082802D3DF
:101120000820106108E0206800F5D87000EB01107D
:10113000406800F00F001061206800F5D87000EBE7
:101140000110406800F47F40000A9061206800F5BB
:10115000D87000EB01104068000C5061206800F569
:10116000D87000EB011080681870206800F5D87006
:1011700000EB0110806800F47F40000A587020687E
:1011800000F5D87000EB0110806800F47F0000E0EB
:101190003CE0000C9870206800F5D87000EB01105E
:1011A0008068000ED870206800F5D87000EB011040
:1011B000C0681871206800F5D87000EB0110C06895
:1011C00000F47F40000A5871206800F5D87000EBE9
:1011D0000110C06800F47F00000C9871206800F5D1
:1011E000D87000EB0110C068000ED87131B92068CA
:1011F000C06840F020002668F06005E020680069C3
:1012000040F020002668306100204EE7606A40F41C
:1012100080206062012048E70146002091F82020EC
:10122000012A01D0022A11D10B689B6803F0806368
:1012300003B1401C0B689B6803F0006303B1401CC2
:101240000B689B6803F0805303B1401C70472DE985
:10125000F05F04460025206846692068D0F80490B5
:10126000206887682068D0F80CA02068D0F810B0FB
:101270002068D0F8188006F00100002855D007F04B
:101280000100C0B101202168886007F0020018B198
:10129000204600F036FA0EE007F0040010B145F4E5
:1012A000006508E007F0080010B145F4805502E041
:1012B000204600F025FA07F48070C8B14FF4807022
:1012C0002168886007F4007018B1204600F01BFA0E
:1012D0000EE007F4806010B145F4005508E007F413
:1012E000006010B145F4804502E0204600F00AFAA3
:1012F00007F48030C8B14FF480302168886007F46B
:10130000003018B1204600F000FA0EE007F480200B
:1013100010B145F4004508E007F4002010B145F491
:10132000803502E0204600F0EFF906F0080038B101
:101330000AF0100020B145F4007510202168C86043
:1013400006F0040040B10AF0080028B10820216826
:10135000C860204600F0A0F906F0020038B120680D
:10136000C06800F0030010B1204600F096F906F0C6
:10137000400038B10BF0100020B145F4806510201A
:101380002168086106F0200040B10BF0080028B188
:10139000082021680861204600F080F906F010005E
:1013A00038B12068006900F0030010B1204600F059
:1013B00076F906F4003040B109F0100028B1102091
:1013C00021684860204600F06BF906F4803040B197
:1013D00009F0080028B1082021684860204600F084
:1013E00095F906F4004088B309F0040078B306F4D8
:1013F000807020B108F0010008B145F0010506F445
:10140000007020B108F0020008B145F0020506F4B2
:10141000806020B108F0040008B145F0040506F42E
:101420000060A0B108F0700088B108F0700040289A
:1014300017D006DC10280BD020280CD0302819D16A
:101440000CE0502810D0602814D110E01DE019E005
:1014500045F008050FE045F010050CE045F02005CB
:1014600009E045F0400506E045F0800503E045F45D
:10147000807500E000BF00BF2068806920F0700028
:10148000216888610420216848602DB1606A284382
:1014900060622046FFF7F5FDBDE8F09F70B5044699
:1014A0000CB9012070BD94F8200010B9204600F05E
:1014B000AFF82068006840F001002168086000F083
:1014C000D9FB05460DE000F0D5FB401B0A2808D9E2
:1014D000606A40F400306062052084F8200001203A
:1014E000E0E72068406800F001000028EBD02068A9
:1014F000006820F002002168086000F0BBFB054690
:101500000DE000F0B7FB401B0A2808D9606A40F4E0
:1015100000306062052084F820000120C2E72068C6
:10152000406800F002000028EBD1207E012806D19F
:101530002068006840F080002168086005E02068AD
:10154000006820F0800021680860607E012806D1D4
:101550002068006840F040002168086005E02068CD
:10156000006820F0400021680860A07E012806D1B4
:101570002068006840F020002168086005E02068CD
:10158000006820F0200021680860E07E012806D174
:101590002068006820F010002168086005E02068DD
:1015A000006840F0100021680860207F012806D103
:1015B0002068006840F008002168086005E02068A5
:1015C000006820F0080021680860607F012806D1CB
:1015D0002068006840F004002168086005E0206889
:1015E000006820F0040021680860D4E90201084383
:1015F00021690843616908436168491E08432168FD
:10160000C86100206062012084F82000002049E7C2
:1016100010B586B00446142101A8FEF72DFE1C4922
:101620002068884231D100BF1A48C06940F000707C
:101630001849C8610846C06900F00070009000BFFA
:1016400000BF00BF0846406940F4003048610846CA
:10165000406900F40030009000BF00BF4FF4C0505C
:1016600001900220029000200390032004900920A2
:10167000059001A9C00600F00FFA002211461420BF
:1016800000F0BCFB142000F0A9FB06B010BD000068
:101690000064004000100240704770477047704778
:1016A000704770B5044694F82000012822D102202A
:1016B00084F820002068006820F00100216808609C
:1016C00000F0D8FA05460DE000F0D4FA401B0A28D5
:1016D00008D9606A40F400306062052084F8200078
:1016E000012070BD2068406800F001000028EBD1A7
:1016F0006062F6E7606A40F4002060620120F0E773
:10170000704770477047704770477047704770B5B3
:1017100003460024002500BF5879012801D102208A
:1017200070BD0120587100BF02201871186804684C
:1017300040F6FE7090408443D1E9000640EA060579
:1017400005FA02F004431868046018680668C020AF
:1017500090408643186806600120187100BF002081
:10176000587100BF00BFDBE710B504460CB901207B
:1017700010BD207920B900206071204600F008F8E3
:101780000220207100202061012020710020EFE75D
:1017900010B586B00446142101A8FEF76DFD164968
:1017A0002068884225D100BF1448C06940F000502D
:1017B0001249C8610846C06900F00050009000BF9F
:1017C00000BF00BF0846406940F400304861084649
:1017D000406900F40030009000BF00BF302001904D
:1017E000032002900020039001A94FF0904000F0E8
:1017F00053F906B010BD0000007400400010024014
:1018000038B50446002000902068009029B902F104
:101810000800009D2844009004E002F11400009D9F
:101820002844009000980360002038BD024600BFA5
:101830005079012801D1022070470120507100BF6A
:10184000022010711068006801238B401843136850
:10185000186061B91068006800F03C003C2813D1A2
:101860001068406840F00100136858600CE0106890
:10187000006800F47010B0F5701F05D11068406862
:1018800040F00200136858600120107100BF002072
:10189000507100BF00BFCFE770B50446E06B05682C
:1018A0002068066894F84010042088402840D0B191
:1018B00006F00400B8B12068006800F0200028B9E4
:1018C0002068006820F004002168086094F8401047
:1018D00004208840E16B4860E06A00284ED0204632
:1018E000E16A88474AE094F8401002208840284086
:1018F00008B306F00200F0B12068006800F0200094
:1019000040B92068006820F00A00216808600120C2
:1019100084F8210094F8401002208840E16B486070
:1019200000BF002084F8200000BFA06A30B320462A
:10193000A16A884722E094F8401008208840284097
:10194000E0B106F00800C8B12068006820F00E0081
:101950002168086094F8401001208840E16B4860DD
:101960000120A06384F8210000BF002084F820003B
:1019700000BF206B10B12046216B884770BD70B549
:10198000044600250CB9012070BD022084F8210016
:101990002068056843F6F0708543D4E901010843E7
:1019A000E16808432169084361690843A169084364
:1019B000E16908430543206805602046FEF7ECFE18
:1019C0000020A063012084F82100002084F820007A
:1019D00000BFD9E72DE9F04104460D4616461F46E3
:1019E0004FF0000800BF94F82000012802D1022027
:1019F000BDE8F081012084F8200000BF94F82100A8
:101A000001282CD1022084F821000020A063206846
:101A1000006820F00100216808603B4632462946F4
:101A20002046FEF7D9FEE06A30B12068006840F039
:101A30000E00216808600BE02068006840F00A0092
:101A4000216808602068006820F0040021680860B0
:101A50002068006840F001002168086006E000BFCF
:101A6000002084F8200000BF4FF002084046BFE786
:101A700070B5044600F0FEF806462546681C10B115
:101A800004480078054400BF00F0F4F8801BA84229
:101A9000FAD370BD0800002078B503460A4600213D
:101AA000C5E001268E40156805EA0604002C73D0B7
:101AB000157905F00305012D04D0157905F003050E
:101AC000022D13D198684E000325B540A8434E005F
:101AD000D568B54028439860586801258D40A843D3
:101AE0001579C5F300158D4028435860157905F028
:101AF0000305032D09D0D8684E000325B540A8433F
:101B00004E009568B5402843D860157905F0030567
:101B1000022D13D1CE0803F1200555F826004D07FC
:101B2000EE0E0F25B540A8434E07F60E1569B540D9
:101B30002843CE0803F1200545F8260018684E001A
:101B40000325B540A843157905F003054E00B540BF
:101B500028431860556805F44035002D66D000BF55
:101B6000364DAD6945F00105344EB5613546AD6978
:101B700005F00105009500BF00BF4FEAB6358E089D
:101B800055F826008D072E0F0F25B540A843B3F159
:101B9000904F02D1002515E048E0294DAB4201D11C
:101BA00001250FE0274DAB4201D102250AE0264D69
:101BB000AB4201D1032505E0244DAB4201D1042500
:101BC00000E005258E07360FB5402843204D8E08CE
:101BD00045F826001F4D2868A043556805F4801578
:101BE00005B120431B4D28602D1D2868A043556872
:101BF00005F4001505B12043164D2D1D2860154D27
:101C00002D1F2868A043556805F4003505B1204311
:101C1000104D2D1F28602D1F2868A043556805F41E
:101C2000803505B120430B4D083D2860491C1568DF
:101C3000CD40002D7FF435AF78BD0000001002408C
:101C40000004004800080048000C0048001000484C
:101C50000800014008040140024613690B400BB123
:101C6000012000E0002070470AB1816100E081623C
:101C70007047000001480068704700000000002025
:101C8000034800680349097808440149086070471F
:101C9000000000200800002010B50848006840F04F
:101CA000100006490860032000F0E6F80F2000F05D
:101CB00007F800F02BF8002010BD000000200240C3
:101CC00070B504460E4800784FF47A71B1FBF0F01D
:101CD0000C490968B1FBF0F5284601F007F908B195
:101CE000012070BD102C07D200222146501E00F0AA
:101CF00085F80548046001E00120F2E70020F0E7E4
:101D0000080000200C0000200400002008B500BFDF
:101D10000D48806940F001000B49886108468069E0
:101D200000F00100009000BF00BF00BF0846C0697E
:101D300040F08050C8610846C06900F080500090B3
:101D400000BF00BF08BD00000010024070B504468F
:101D50000E4615460CB9012070BDE06F28B9002071
:101D600084F87800204601F0BFFE2420E067206858
:101D7000006820F0010021680860204604F008FE99
:101D8000012800D1E8E7606A10B1204604F0DEFCCB
:101D90002068406820F4904021684860206880688E
:101DA00020F02A0021688860B5F5006F05D1206811
:101DB000406866F31F60216848602068006820F46E
:101DC00000602843216808602068006840F0010036
:101DD00021680860204604F035FDBDE7014608464D
:101DE000002809DB00F01F0301229A4043099B00F1
:101DF00003F1E023C3F8002100BF70472DE9F05F35
:101E000080460D461646002704F01CFF074639465B
:101E10002A46334601F00700C0F1070ABAF1040F61
:101E200002D94FF0040A01E0C0F1070AD14600F1DF
:101E3000040ABAF1070F02D24FF0000A01E0A0F144
:101E4000030AD4464FF0010A0AFA09FAAAF1010A74
:101E50000AEA020A0AFA0CFA4FF0010B0BFA0CFB21
:101E6000ABF1010B0BEA030B4AEA0B042146404697
:101E700004F0F0FEBDE8F09F00BF00F00702064B43
:101E800019684FF6FF031940044B0B4343EA022144
:101E9000014B196000BF70470CED00E00000FA052F
:101EA000F8B50446002600250027206800F480309D
:101EB000B0F5803F74D19548C06900F0805070B98A
:101EC00000BF9248C06940F080509049C861084600
:101ED000C06900F08050009000BF00BF01278C480F
:101EE000006800F48070B0B98948006840F48070E0
:101EF00087490860FFF7BEFE064606E0FFF7BAFE18
:101F0000801B642801D90320F8BD8148006800F4D3
:101F100080700028F2D07D48006A00F44075002DE2
:101F20006CD0A08800F44070A84267D07748006A5F
:101F300020F440750120010491FAA1F1B1FA81F178
:101F4000744A02EB8101C1F8000400204FF4803193
:101F500091FAA1F1B1FA81F102EB8101C1F800041B
:101F60006A48056205F00100B8B3FFF783FE064634
:101F700008E0FFF77FFE801B41F28831884201D9DB
:101F80000320C1E74020022191FAA1F1B1FA81F1C9
:101F900008430121B1EB601F03D15C4800681FE0DA
:101FA0003BE04020022191FAA1F1B1FA81F108430E
:101FB0000221B1EB601F02D15448006A10E04020BA
:101FC000022191FAA1F1B1FA81F108430421B1EBA8
:101FD000601F03D14D48406802E00FE04B48406A63
:101FE0004021022292FAA2F2B2FA82F2114301F0E7
:101FF0001F020121914008400028BAD04348006ADE
:1020000020F440706168084340490862012F04D100
:102010000846C06920F08050C861207800F00100B7
:1020200038B13A48006B20F00300A16808433749F3
:102030000863207800F00200022807D13348006BC3
:1020400020F44030E168084330490863207800F00C
:102050000400042807D12D48006B20F4402021699A
:1020600008432A490863207800F02000202807D17F
:102070002648006B20F0100061690843234908637B
:10208000206800F40030B0F5003F07D11F484068D9
:1020900020F48000A16A08431C494860207800F0C1
:1020A0004000402807D11948006B20F02000A169AA
:1020B000084316490863207800F08000802807D183
:1020C0001248406820F44040E16908430F494860E5
:1020D000208800F40060B0F5006F07D10B4840681D
:1020E00020F07840216A084308494860208800F4BD
:1020F0008060B0F5806F07D10448006B20F040008D
:10210000616A0843014908630020FDE600100240AF
:10211000007000400000424270B504460D460026A3
:102120000CB9012070BDA248006800F00700A84269
:102130000ED29F48006820F0070028439C490860A1
:102140000846006800F00700A84201D00120E9E736
:10215000207800F00200022807D19648406820F05D
:10216000F000A168084393494860207800F001001E
:1021700000287CD0606801283BD12020010391FA1F
:10218000A1F1B1FA81F108430121B1EB601F02D145
:10219000884800681DE02020010391FAA1F1B1FAFE
:1021A00081F108430221B1EB601F02D18148006A2E
:1021B0000FE02020010391FAA1F1B1FA81F1084367
:1021C0000421B1EB601F02D17A48406801E07948F0
:1021D000406A20210A0392FAA2F2B2FA82F2114373
:1021E00001F01F0201219140084000287CD101200C
:1021F00098E7606802283BD12020010591FAA1F1FF
:10220000B1FA81F108430121B1EB601F02D16948A5
:1022100000681DE02020010591FAA1F1B1FA81F1D9
:1022200008430221B1EB601F02D16248006A0FE04F
:102230002020010591FAA1F1B1FA81F108430421AE
:10224000B1EB601F02D15B48406801E05948406A29
:1022500020210A0592FAA2F2B2FA82F2114301F0A9
:102260001F02012191400840E8BB01205AE758E0D5
:102270002020022191FAA1F1B1FA81F10843012154
:10228000B1EB601F02D14B4800681DE02020022105
:1022900091FAA1F1B1FA81F108430221B1EB601F7B
:1022A00002D14448006A0FE02020022191FAA1F1F6
:1022B000B1FA81F108430421B1EB601F02D13D481E
:1022C000406801E03B48406A2021022292FAA2F2D3
:1022D000B2FA82F2114301F01F020121914008403D
:1022E00008B901201EE7FFE73248406820F00300EC
:1022F000616808432F494860FFF7BCFC064608E0C8
:10230000FFF7B8FC801B41F28831884201D90320D5
:1023100008E72848406800F00C006168B0EB810FC6
:10232000EED12348006800F00700A8420ED92048EB
:10233000006820F0070028431D490860084600682F
:1023400000F00700A84201D00120EBE6207800F061
:102350000400042807D11748406820F4E060E168D1
:10236000084314494860207800F00800082808D184
:102370001048406820F46050216940EAC1000D49CE
:10238000486000F051F80B49496801F0F001F02273
:1023900092FAA2F2B2FA82F2D140074A515CC840E6
:1023A0000649086006480068FFF78AFC0020B9E685
:1023B00000200240001002403C6D00080C0000208C
:1023C0000400002001480068704700000C00002055
:1023D00000B5FFF7F7FF0749496801F4E0614FF4E2
:1023E000E06292FAA2F2B2FA82F2D140024A515C61
:1023F000C84000BD001002404C6D000800B5FFF75A
:10240000E1FF0749496801F460514FF4605292FAC4
:10241000A2F2B2FA82F2D140024A515CC84000BD39
:10242000001002404C6D00082DE9F0410024002509
:1024300000270026A0461F48446804F00C0078B32B
:10244000042802D008282CD102E0DFF86C802CE0B0
:1024500004F470104FF4701191FAA1F1B1FA81F106
:10246000C84016490E5C1348C06A00F00F000F21E7
:1024700091FAA1F1B1FA81F1C84011490D5C04F45F
:10248000803040B12A4600230B481946FDF79AFEDA
:10249000A0FB067102E00B48A0FB0671B84604E001
:1024A00000E000BFDFF8108000BF00BF4046BDE87D
:1024B000F08100000010024000127A001C6D00083C
:1024C0002C6D000800093D00F8B504460CB9012048
:1024D000F8BD207800F0010000287BD0FA48406861
:1024E00000F00C0004280CD0F748406800F00C0005
:1024F000082845D1F448406800F48030B0F5803FAA
:102500003ED12020010391FAA1F1B1FA81F10843F3
:102510000121B1EB601F02D1EB4800681DE02020D3
:10252000010391FAA1F1B1FA81F108430221B1EB63
:10253000601F02D1E448006A0FE02020010391FAF5
:10254000A1F1B1FA81F108430421B1EB601F02D17E
:10255000DD48406801E0DC48406A20210A0392FA25
:10256000A2F2B2FA82F2114301F01F02012191405E
:1025700008400028B1D0606800282BD10120A7E7CF
:1025800000BF6068B0F5803F06D1CF48006840F4D6
:102590008030CD49086029E0606858B9CA480068B1
:1025A00020F48030C84908600846006820F4802084
:1025B00008601BE06068B0F5A02F0CD1C24800682D
:1025C00040F48020C04908600846006840F480302C
:1025D00008600BE0A1E0BC48006820F48030BA49F4
:1025E00008600846006820F48020086000BFB648F4
:1025F000C06A20F00F00A1680843B349C862606850
:10260000A0B3FFF737FB054606E0FFF733FB401B9F
:10261000642801D903205BE72020010391FAA1F18E
:10262000B1FA81F108430121B1EB601F02D1A64844
:1026300000681EE02020010391FAA1F1B1FA81F1B6
:1026400008430221B1EB601F02D19F48006A10E0ED
:102650002020010391FAA1F1B1FA81F1084304218C
:10266000B1EB601F03D19848406802E010E0964843
:10267000406A20210A0392FAA2F2B2FA82F21143CE
:1026800001F01F020121914008400028BDD044E024
:10269000FFF7F0FA054606E0FFF7ECFA401B642866
:1026A00001D9032014E72020010391FAA1F1B1FA26
:1026B00081F108430121B1EB601F02D1824800681B
:1026C0001DE02020010391FAA1F1B1FA81F1084344
:1026D0000221B1EB601F02D17B48006A0FE020208D
:1026E000010391FAA1F1B1FA81F108430421B1EBA0
:1026F000601F02D17448406801E07348406A20219D
:102700000A0392FAA2F2B2FA82F2114301F01F0216
:102710000121914008400028BED1207800F002003D
:1027200002285CD16848406800F00C0050B166484F
:10273000406800F00C00082852D16348406800F45B
:102740008030E8BB2020022191FAA1F1B1FA81F199
:1027500008430121B1EB601F02D15B4800681DE016
:102760002020022191FAA1F1B1FA81F1084302215E
:10277000B1EB601F02D15448006A0FE02020022113
:1027800091FAA1F1B1FA81F108430421B1EB601F84
:1027900002D14D48406801E04B48406A20210222A6
:1027A00092FAA2F2B2FA82F2114301F01F02012161
:1027B0009140084028B12069012802D0012087E615
:1027C0000EE04148006820F0F800F82292FAA2F2E8
:1027D000B2FA82F26169914008433B490860B1E076
:1027E000206970B3012191FAA1F0B0FA80F0374A64
:1027F00042F82010FFF73EFA054606E0FFF73AFAE6
:10280000401B022801D9032062E62020022191FA10
:10281000A1F1B1FA81F108430121B1EB601F02D1AE
:10282000294800681EE02020022191FAA1F1B1FAA6
:1028300081F108430221B1EB601F03D12248006AF5
:1028400010E02CE02020022191FAA1F1B1FA81F1EF
:1028500008430421B1EB601F02D11B48406801E02E
:102860001948406A2021022292FAA2F2B2FA82F2B8
:10287000114301F01F020121914008400028BDD002
:102880001148006820F0F800F82292FAA2F2B2FA99
:1028900082F26169914008430B49086052E00020D0
:1028A000012191FAA1F1B1FA81F1084A42F821001F
:1028B000FFF7E0F905460BE0FFF7DCF9401B0228C3
:1028C00006D9032004E60000001002400000424246
:1028D0002020022191FAA1F1B1FA81F108430121EE
:1028E000B1EB601F02D1FB4800681DE020200221EF
:1028F00091FAA1F1B1FA81F108430221B1EB601F15
:1029000002D1F448006A0FE02020022191FAA1F1DF
:10291000B1FA81F108430421B1EB601F02D1ED4807
:10292000406801E0EB48406A2021022292FAA2F2BC
:10293000B2FA82F2114301F01F02012191400840D6
:102940000028B9D1207800F00800082851D1A069EA
:1029500080B3012191FAA1F0B0FA80F0DE4A02EBD7
:102960008000C0F88014FFF785F9054606E0FFF700
:1029700081F9401B022801D90320A9E5602002212A
:1029800091FAA1F1B1FA81F108430121B1EB601F85
:1029900002D1D04800681EE06020022191FAA1F126
:1029A000B1FA81F108430221B1EB601F03D1C9489C
:1029B000006A10E01EE06020022191FAA1F1B1FA54
:1029C00081F108430421B1EB601F02D1C148406886
:1029D00001E0C048406A6021022292FAA2F2B2FAF3
:1029E00082F2114301F01F020121914008400028AA
:1029F000BDD04FE00020012191FAA1F1B1FA81F19F
:102A0000B54A02EB8101C1F88004FFF733F90546AE
:102A100006E0FFF72FF9401B022801D9032057E5F4
:102A20006020022191FAA1F1B1FA81F1084301215C
:102A3000B1EB601F02D1A74800681DE060200221B1
:102A400091FAA1F1B1FA81F108430221B1EB601FC3
:102A500002D1A048006A0FE06020022191FAA1F1A2
:102A6000B1FA81F108430421B1EB601F02D199480A
:102A7000406801E09748406A6021022292FAA2F27F
:102A8000B2FA82F2114301F01F0201219140084085
:102A90000028BED1207800F00400042873D100275C
:102AA0008C48C06900F0805070B900BF8948C06987
:102AB00040F080508749C8610846C06900F08050E6
:102AC000009000BF00BF01278448006800F48070B8
:102AD000B0B98248006840F4807080490860FFF710
:102AE000C9F8054606E0FFF7C5F8401B642801D980
:102AF0000320EDE47948006800F480700028F2D0EB
:102B000000BFE068012806D17248006A40F0010069
:102B10007049086227E0E06858B96E48006A20F002
:102B200001006C4908620846006A20F0040008624F
:102B300019E0E06805280BD16648006A40F00400FF
:102B4000644908620846006A40F0010008620AE031
:102B50006048006A20F001005E4908620846006A89
:102B600020F00400086200BFE068B8B3FFF782F805
:102B7000054609E0FFF77EF8401B41F288318842A4
:102B800002D90320A4E48BE04020022191FAA1F1B4
:102B9000B1FA81F108430121B1EB601F02D14D4828
:102BA00000681EE04020022191FAA1F1B1FA81F102
:102BB00008430221B1EB601F02D14648006A10E0D1
:102BC0004020022191FAA1F1B1FA81F108430421D8
:102BD000B1EB601F03D13F48406802E010E03D4880
:102BE000406A4021022292FAA2F2B2FA82F2114322
:102BF00001F01F020121914008400028BAD046E0B0
:102C0000FFF738F8054608E0FFF734F8401B41F2BB
:102C10008831884201D903205AE44020022191FAE8
:102C2000A1F1B1FA81F108430121B1EB601F02D19A
:102C3000284800681DE04020022191FAA1F1B1FA74
:102C400081F108430221B1EB601F02D12148006AE3
:102C50000FE04020022191FAA1F1B1FA81F108437D
:102C60000421B1EB601F02D11A48406801E0194805
:102C7000406A4021022292FAA2F2B2FA82F2114391
:102C800001F01F020121914008400028BCD1012F12
:102C900005D11048C06920F080500E49C86100BFBE
:102CA000E069002874D00B48406800F00C00082848
:102CB0006FD0E06902286DD100204FF0807191FA49
:102CC000A1F1B1FA81F1044A42F82100FEF7D2FFE6
:102CD00005460CE000100240000042420070004037
:102CE000FEF7C8FF401B022801D9032047E420203B
:102CF000010591FAA1F1B1FA81F108430121B1EB8B
:102D0000601F02D1774800681DE02020010591FA7C
:102D1000A1F1B1FA81F108430221B1EB601F02D1A8
:102D20007048006A0FE02020010591FAA1F1B1FA84
:102D300081F108430421B1EB601F02D1694840686A
:102D400001E06848406A20210A0592FAA2F2B2FA2C
:102D500082F2114301F01F02012191400840002836
:102D6000BED1D4E9081008435E49496821F47411C2
:102D700008435C4948600120010691FAA1F1B1FACB
:102D800081F1594A42F82100FEF774FF054609E037
:102D9000A5E092E041E0FEF76DFF401B022801D95B
:102DA000032038E42020010591FAA1F1B1FA81F164
:102DB00008430121B1EB601F02D14A4800681DE0C1
:102DC0002020010591FAA1F1B1FA81F10843022115
:102DD000B1EB601F02D14348006A0FE020200105DB
:102DE00091FAA1F1B1FA81F108430421B1EB601F1E
:102DF00002D13C48406801E03A48406A20210A0577
:102E000092FAA2F2B2FA82F2114301F01F020121FA
:102E1000914008400028BED061E000204FF0807152
:102E200091FAA1F1B1FA81F12F4A42F82100FEF79F
:102E300021FF054606E0FEF71DFF401B022801D9D1
:102E400003202FE42020010591FAA1F1B1FA81F1CC
:102E500008430121B1EB601F02D1224800681DE048
:102E60002020010591FAA1F1B1FA81F10843022174
:102E7000B1EB601F02D11B48006A0FE02020010562
:102E800091FAA1F1B1FA81F108430421B1EB601F7D
:102E900002D11448406801E01248406A20210A0526
:102EA00092FAA2F2B2FA82F2114301F01F0201215A
:102EB000914008400028BED111E0E069012800D10E
:102EC0007DE40848466806F48031206A814204D1D6
:102ED00006F47011606A814201D001206FE4002085
:102EE0006DE40000001002400000424270B504464C
:102EF0002546681EB0F1807F01D301200FE0681ED7
:102F00004FF0E02148610F214FF0FF3003F0A2FEA7
:102F100000204FF0E021886107200861002070BD8B
:102F20007047704710B50346002200BF93F83C007D
:102F3000012801D1022010BD012083F83C0000BF10
:102F400022F0FF00CC6840EA040222F440708C6852
:102F500040EA040222F480604C6840EA040222F451
:102F600000600C6840EA040222F480500C6940EAD8
:102F7000040222F400504C6940EA040222F480402A
:102F8000CC6940EA04021868426400BF002083F85C
:102F90003C0000BF00BFCEE730B502460B4600BF85
:102FA00092F83C00012801D1022030BD012082F8B6
:102FB0003C0000BF022082F83D00106844681068A1
:102FC000816824F070041868044310684460106835
:102FD000B0F1804F17D0144D1068A84213D0134D94
:102FE0001068A8420FD0124D1068A8420BD0114DA6
:102FF0001068A84207D0104D1068A84203D00F4DAA
:103000001068A84205D121F080015868014310687A
:103010008160012082F83D0000BF002082F83C0062
:1030200000BF00BFC1E700000004004000080040EE
:10303000000C00400018004000400140005C0140CE
:1030400010B504460CB9012010BD94F83D0028B914
:10305000002084F83C00204600F026F8022084F886
:103060003D00211D206802F05BFF012084F848002C
:1030700000BF84F83E0001213F200155402001554A
:103080004120015500BF00BF012084F844004520C5
:103090000155462001554720015500BF012084F805
:1030A0003D000020D0E7000038B504462068B0F1AC
:1030B000804F16D100BF5C48C06940F001005A49FA
:1030C000C8610846C06900F00100009000BF00BF61
:1030D000002211461C20FEF791FE1C20FEF77EFE0A
:1030E000A0E052492068884216D100BF4E48C0690E
:1030F00040F002004C49C8610846C06900F0020077
:10310000009000BF00BF002211461D20FEF776FE92
:103110001D20FEF763FE85E045492068884216D1F0
:1031200000BF4148C06940F008003F49C8610846F7
:10313000C06900F00800009000BF00BF00221146E7
:103140003220FEF75BFE3220FEF748FE6AE0394986
:103150002068884216D100BF3348C06940F0800023
:103160003149C8610846C06900F08000009000BF86
:1031700000BF002211462C20FEF740FE2C20FEF757
:103180002DFE4FE02C492068884216D100BF26480A
:10319000C06940F480702449C8610846C06900F4E1
:1031A0008070009000BF00BF002211462D20FEF766
:1031B00025FE2D20FEF712FE34E0204920688842CB
:1031C00016D100BF1848806940F400301649886164
:1031D0000846806900F40030009000BF00BF002264
:1031E00011461920FEF70AFE1920FEF7F7FD19E037
:1031F00013492068884215D100BF0B48806940F40C
:103200000020094988610846806900F40020009088
:1032100000BF00BF002211464E20FEF7EFFD4E20FA
:10322000FEF7DCFD38BD0000001002400004004045
:10323000000C0040001C0040002000400044014001
:10324000005C01402DE9F04104460D46002700BF17
:1032500094F83C00012802D10220BDE8F081012051
:1032600084F83C0000BF022084F83D002068866896
:1032700026F0770626F47F46206886602868502866
:1032800033D00CDC202850D004DC00284BD0102890
:1032900051D149E0302849D040284CD139E060284C
:1032A0002DD0702807D0B0F5805F03D0B0F5005F57
:1032B00041D10DE041E0D5E902136A68206802F0CF
:1032C000A6FE2068866846F077062068866034E0AF
:1032D000D5E902136A68206802F099FE20688068C8
:1032E00040F480402168886027E0EA6869682068C7
:1032F00002F068FF5021206802F094FE1DE0EA68A9
:103300006968206802F071FF6021206802F08AFE7F
:1033100013E0EA686968206802F054FF40212068E1
:1033200002F080FE09E000BF00BF00BF29682068EE
:1033300002F078FE01E0012700BF00BF012084F801
:103340003D0000BF002084F83C0000BF384684E701
:10335000704710B5044620680069C0F34000D8B13A
:103360002068C068C0F34000B0B16FF0020021686F
:103370000861012020772068806900F0030018B1FF
:103380002046FFF7E5FF05E0204600F005FA20465D
:1033900000F08EFB0020207720680069C0F38000D9
:1033A000D8B12068C068C0F38000B0B16FF00400ED
:1033B00021680861022020772068806900F440704D
:1033C00018B12046FFF7C4FF05E0204600F0E4F9FD
:1033D000204600F06DFB0020207720680069C0F3D4
:1033E000C000D8B12068C068C0F3C000B0B16FF0B1
:1033F000080021680861042020772068C06900F077
:10340000030018B12046FFF7A3FF05E0204600F0B7
:10341000C3F9204600F04CFB0020207720680069AB
:10342000C0F30010D8B12068C068C0F30010B0B17C
:103430006FF0100021680861082020772068C069BB
:1034400000F4407018B12046FFF782FF05E02046E7
:1034500000F0A2F9204600F02BFB00202077206826
:10346000006900F0010058B12068C06800F0010058
:1034700030B16FF0010021680861204600F019FBAF
:1034800020680069C0F3C01058B12068C068C0F35C
:10349000C01030B16FF08000216808612046FFF74E
:1034A0003FFD20680069C0F3801058B12068C068F3
:1034B000C0F3801030B16FF04000216808612046F1
:1034C00000F011FB20680069C0F3401058B120687B
:1034D000C068C0F3401030B16FF02000216808616F
:1034E0002046FFF71EFD10BD10B586B0044614211E
:1034F00001A8FCF7C1FE2068B0F1804F1BD100BFCE
:103500007F48406940F480207D4948610846406911
:1035100000F48020009000BF00BF0820019002202E
:1035200002900020039004900120059001A97548A5
:10353000FEF7B2FAE2E07449206888421BD100BF6E
:103540006F48406940F480206D49486108464069F1
:1035500000F48020009000BF00BF80200190022076
:1035600002900020039004900A20059001A965486C
:10357000FEF792FAC2E06549206888421CD100BF7C
:103580005F48406940F400305D4948610846406941
:1035900000F40030009000BF00BF881501900220A9
:1035A00002900020039004900220059001A94FF0A2
:1035B0009040FEF771FAA1E05549206888421DD17C
:1035C00000BF4F48406940F400304D49486108460B
:1035D000406900F40030009000BF00BF4FF400408D
:1035E0000190022002900020039004900A20059090
:1035F00001A94FF09040FEF74FFA7FE0454920685F
:1036000088421BD100BF3E48406940F400203C493D
:1036100048610846406900F40020009000BF00BFE8
:1036200010200190022002900020039004900220BC
:10363000059001A93848FEF72FFA5FE03749206866
:1036400088421BD100BF2E48406940F400302C490D
:1036500048610846406900F40030009000BF00BF98
:103660008020019002200290002003900490092005
:10367000059001A9C006FEF70FFA3FE0284920682F
:1036800088421CD100BF1E48406940F400301C49EC
:1036900048610846406900F40030009000BF00BF58
:1036A000402001900220029000200390049001200D
:1036B000059001A94FF09040FEF7EEF91EE0194980
:1036C000206888421AD100BF0D48406940F40020AC
:1036D0000B4948610846406900F40020009000BF93
:1036E00000BFC814019002200290002003900490B3
:1036F0000220059001A90848FEF7CEF906B010BDDA
:10370000001002400004004800040040000C00408B
:1037100000180040001C0040000800480020004045
:1037200000440140005C01402DE9F04104460E4692
:103730001546002700BF94F83C00012802D1022062
:10374000BDE8F081012084F83C0000BF35B1042DB4
:1037500009D0082D0CD00C2D14D10EE03146206874
:1037600002F06AFC10E03146206802F0A7FC0BE092
:103770003146206802F0E0FC06E03146206802F0A5
:1037800007FD01E0012700BF00BF00BF002084F853
:103790003C0000BF3846D3E7704710B504460CB96B
:1037A000012010BD94F83D0028B9002084F83C00A9
:1037B000204600F025F8022084F83D00211D2068F5
:1037C00002F0AEFB012084F8480000BF84F83E0000
:1037D00001213F200155402001554120015500BFE6
:1037E00000BF012084F844004520015546200155C2
:1037F0004720015500BF012084F83D000020D0E79C
:1038000038B504460D492068884215D100BF0C48E0
:10381000C06940F040000A49C8610846C06900F02C
:103820004000009000BF00BF002211462B20FEF791
:10383000E5FA2B20FEF7D2FA38BD00000018004050
:1038400000100240F0B504460D46002615B994F864
:103850003E000BE0042D02D13F20005D06E0082D64
:1038600002D14020005D01E04120005D012801D02F
:103870000120F0BD1DB9022084F83E000EE0042DA9
:1038800003D102213F20015508E0082D03D1022178
:103890004020015502E002214120015535B1042D9F
:1038A0000BD0082D10D00C2D1CD114E02068C0685E
:1038B00040F002002168C86016E02068C06840F04F
:1038C00004002168C8600FE02068C06840F008006C
:1038D0002168C86008E02068C06840F010002168D6
:1038E000C86001E0012600BF00BFEEBB01222946EF
:1038F000206802F07BFB24492068884207D02349D6
:103900002068884203D022492068884201D10120E2
:1039100000E0002028B12068406C40F4004021689D
:1039200048642068B0F1804F17D01A492068884257
:1039300013D01949206888420FD01849206888425E
:103940000BD017492068884207D00F492068884269
:1039500003D01449206888420ED12068806800F0A6
:103960000707062F0ED000E00CE02068006840F04A
:1039700001002168086005E02068006840F001004F
:1039800021680860304674E700400140004401406F
:10399000004801400004004000080040000C0040C6
:1039A00000180040005C014070B504460D4600263A
:1039B00035B1042D0BD0082D10D00C2D1CD114E0E6
:1039C0002068C06820F002002168C86016E0206806
:1039D000C06820F004002168C8600FE02068C0685B
:1039E00020F008002168C86008E02068C06820F066
:1039F00010002168C86001E0012600BF00BF002E52
:103A00004ED100222946206802F0F0FA25492068AC
:103A1000884207D024492068884203D0234920687F
:103A2000884201D1012000E0002090B100BF206851
:103A3000006A41F21111084050B92068006A8910EB
:103A4000084028B92068406C20F400402168486490
:103A500000BF00BF2068006A41F21111084050B950
:103A60002068006A8910084028B92068006820F0A2
:103A700001002168086000BF1DB9012084F83E00E4
:103A80000EE0042D03D101213F20015508E0082D4F
:103A900003D101214020015502E0012141200155BF
:103AA000304670BD004001400044014000480140E4
:103AB000704770470246002031B1042907D0082919
:103AC00008D00C290CD108E01368586B09E0136882
:103AD000986B06E01368D86B03E01368186C00E07D
:103AE00000BF00BF7047704710B586B00446142170
:103AF00001A8FCF7C1FB1849206888422AD100BF01
:103B00001648806940F480401449886108468069FD
:103B100000F48040009000BF00BF00BF084640692D
:103B200040F4003048610846406900F400300090DD
:103B300000BF00BF4FF4C06001901220029000202F
:103B40000390032004900720059001A94FF09040B6
:103B5000FDF7A2FF06B010BD003801400010024082
:103B600000BFFEE770B50446A078F0B9E07808B170
:103B7000012000E0002003462348C268806881B22B
:103B8000002000F0C7FAE07808B1012000E0002032
:103B900003461E48C268806881B2002001F0EEFE34
:103BA0000121002002F000F92CE0A078042813DCA9
:103BB000A07888B1E5780DB1012500E000252B46FD
:103BC000114DEA68AD68A9B2A07800F0A3FAA07818
:103BD000012102F0E9F815E0A078042812DDE5786B
:103BE0000DB1012500E000252B46084DEA68AD68BF
:103BF000A9B2A5782D1FE8B201F0C0FEA07801217E
:103C000002F0D2F8002070BDAC0E00200C0F002096
:103C10000023036043608260C16070472DE9F0417A
:103C20000446002500260027A846052C7AD2DFE8A6
:103C300004F03F0311202F0000213D48FFF73AFF19
:103C40000546681C3A490968486300213848FFF76F
:103C5000F9FD68E000213748FFF72CFF0646701C8D
:103C600080B234490968486300213248FFF7EAFD11
:103C700059E000213048FFF71DFF0746781C80B24D
:103C80002D490968486300212B48FFF7DBFD4AE016
:103C900000212A48FFF70EFF804608F1010080B29C
:103CA00026490968486300212448FFF7CBFD3AE024
:103CB00000211F48FFF7FEFE054600211D48FFF7C3
:103CC000F9FE064600211C48FFF7F4FE07460021D6
:103CD0001A48FFF7EFFE8046681C154909684863DB
:103CE00000211348FFF7AEFD701C80B2114909682E
:103CF000486300210F48FFF7A5FD781C80B20E49EC
:103D00000968486300210C48FFF79CFD08F1010099
:103D100080B20A490968486300210848FFF792FD0C
:103D200001E0FFE700BF00BF0020BDE8F081000018
:103D30001C0B00204C0C0020000C0020B40B0020B9
:103D400010B50446052C29D2DFE804F01703080D4E
:103D5000120000211548FFF727FE20E0002114483B
:103D6000FFF722FE1BE000211248FFF71DFE16E0C0
:103D700000211148FFF718FE11E000210B48FFF762
:103D800013FE00210A48FFF70FFE00210948FFF744
:103D90000BFE00210848FFF707FE00E000BF00BF50
:103DA000E0B2002100F0A2FA002010BD1C0B0020A0
:103DB0004C0C0020000C0020B40B00202DE9F04139
:103DC0002DED028B05460C46174698469FEDCE0A10
:103DD000F0EE408A9FEDCC0AB0EE408A5FB142F22D
:103DE0001070844207D8042D05DCB8F1010F07D00C
:103DF000B8F1000F04D00020BDEC028BBDE8F081CB
:103E00000A2C00D20A24002D77D000EE104AB8EE1A
:103E1000400AF7EE000A80EE801AF0EE418A9FED2C
:103E2000BB0AC8EE800AB0EE608ABCEEC80A10EE8B
:103E3000100A4108681E00EB4000B54A02EBC000C2
:103E40004161B4F57A7F07D36421681E00EB40001E
:103E500002EBC00041600CE0BCEEC80A10EE100A94
:103E600040084100681E00EB4000A94A02EBC00078
:103E700041600021681E00EB4000A54A02EBC00033
:103E8000C160681E00EB4000114601EBC0000761F5
:103E90000321681E00EB400002F83010414628461E
:103EA00000F0B4FF0121284600F07CFF0F2F06DA56
:103EB0000121681E00EB4000954A02F830100520F1
:103EC00097FBF0F0C82190FBF1F0C1B2681E00EB47
:103ED00040008F4A02EBC0004170681E00EB4000BA
:103EE000114601EBC000407840B90821681E00EB84
:103EF000400002EBC000417010E04DE0681E00EB96
:103F00004000834901EBC00040780830C1B2681E10
:103F100000EB40007E4A02EBC00041700A2C15D332
:103F2000B4F5FA6F12D81421681E00EB4000784AED
:103F300002EBC0000181B4FBF7F0401C81B2681EA7
:103F400000EB400002EBC000418118E0B4F5FA6FCD
:103F500015D942F21070844211D80121681E00EB7D
:103F600040006B4A02EBC0000181B4FBF7F0401D3A
:103F700081B2681E00EB400002EBC0004181681E68
:103F800000EB4000624A12F83010284600F0AEF90B
:103F90002846FFF743FEB4E00026A7E000EE104AF3
:103FA000B8EE400AF7EE000A80EE801AF0EE418A81
:103FB0009FED560AC8EE800AB0EE608ABCEEC80AD1
:103FC00010EE100A400806EB4601514A02EBC1010F
:103FD0004861B4F57A7F06D3642006EB460102EB14
:103FE000C10148600BE0BCEEC80A10EE100A4008A0
:103FF000400006EB4601464A02EBC1014860002042
:1040000006EB4601424A02EBC101C86006EB4600DE
:10401000114601EBC0000761032006EB460102F8E0
:104020003100711CC8B2414600F0F0FE711CC8B2EC
:10403000012100F0B7FE0F2F05DA022006EB460142
:10404000334A02F83100052097FBF0F0C82190FBBD
:10405000F1F006EB46012E4A02EBC101487006EB77
:104060004600114601EBC000407830B9082006EB4D
:10407000460102EBC10148700CE006EB4600244902
:1040800001EBC0004078083006EB4601204A02EB05
:10409000C10148700A2C12D3B4F5FA6F0FD814205E
:1040A00006EB46011A4A02EBC1010881B4FBF7F0A6
:1040B000401C06EB460102EBC101488115E0B4F556
:1040C000FA6F12D942F2107084420ED8012006EB2A
:1040D00046010F4A02EBC1010881B4FBF7F00A3038
:1040E00006EB460102EBC1014881761C042EFFF667
:1040F00055AF0748017E284600F0F8F80020FFF78A
:104100008DFD002078E6000000000000ACC5A73659
:104110006C0D00202DE9F0418CB004460F46164688
:10412000984600200A900B9002214FF09040FDF736
:1041300093FD8DF8290008213E48FDF78DFD8DF88F
:104140002A0004213B48FDF787FD8DF82B00022152
:104150003848FDF781FD8DF82C001422364905A85A
:10416000FCF771F81422344914316846FCF76BF8F7
:10417000042C04DD4FF0FF300CB0BDE8F0815CB3DF
:104180000AA8005D28B901205DF8241008700020FD
:10419000F2E705A850F82400407848B9002005A9A6
:1041A00051F824108880012005A951F82410487086
:1041B00046B105A850F824008660022005A951F8F0
:1041C0002410487043461D48026802F5487239467B
:1041D0002046FFF7F3FD2AE0012526E00AA8405D0E
:1041E00020B901205DF8251008701DE0012005A907
:1041F00051F825104870002005A951F82510888035
:1042000046B105A850F825008660022005A951F89E
:1042100025104870E8B2434608490A6802F548721A
:104220003946FFF7CBFD00BF6D1C052DD6DB002006
:10423000A2E7000000080048D86D00082000002018
:1042400070B505460C462078062847D2DFE800F016
:10425000460640032C1F0120207040E0207B00F028
:10426000010018B921896068401A6060616960685E
:10427000884201D80520207003212069B0FBF1F0AD
:10428000E168B0EB510F01D80520207027E061787C
:104290002069B0FBF1F0491E4843E168B0EB510FD3
:1042A00001D8042020701AE0D4E90310B0EB510FBC
:1042B00002D8022020700AE0207B00F0010030B913
:1042C0006068642803D2618960680844606006E021
:1042D000002020702846FFF733FD00E000BF00BF3C
:1042E0002178284600F002F8002070BD0246052A19
:1042F00019D2DFE802F00F0306090C000C48017028
:1043000012E00C4801700FE00B4801700CE00B4804
:10431000017009E006480170064801700648017006
:104320000648017000E000BF00BF00207047000099
:104330002C0E00203C0E00204C0E00205C0E0020B5
:104340002DE9F04786B00646894614469846142261
:10435000414901A8FBF777FF4FF0000A0027042E20
:1043600003DD781E06B0BDE8F08776B3012001A911
:1043700051F826108870002001A951F82610888075
:10438000B8F1000F0ED0002C01DA604200E02046A8
:104390008246012000EBE473524649463046FFF75F
:1043A0000DFD56E001A850F82600C068271A002F1E
:1043B00001DA784200E03846824601A850F826002B
:1043C000C068A04202DC012001E007E000200346B3
:1043D000524649463046FFF7F1FC3AE0012536E007
:1043E000002001A951F825108880012001A951F869
:1043F00025108870B8F1000F0ED0002C01DA604251
:1044000000E020468246012101EBE473E8B2524607
:104410004946FFF7D3FC19E001A850F82500C06811
:10442000271A002F01DA784200E03846824601A9B7
:1044300051F82510C968A14201DC012100E00021EA
:104440000B46E8B252464946FFF7B8FC6D1C052DF5
:10445000C6DB002086E70000286E00080EB50020AD
:10446000009001900290184818490860811517487B
:10447000816001210173002101754FF46021C16148
:10448000002012494860022110480161FCF74CFBF2
:1044900008B1FCF7F4F9022000900120019002908D
:1044A00069460A48FCF792FA08B1FCF7E8F90320DC
:1044B00000900220019069460448FCF787FA08B191
:1044C000FCF7DDF90EBD0000002401404C00002087
:1044D00000B58BB02E482F490860032048600021AA
:1044E0002C488160C1604FF4E02101614FF400115C
:1044F000416100210176417681760121C17600215A
:1045000001774177FCF7CAFF08B1FCF7B8F9012041
:104510000990002006900120079008900020059047
:104520004FF4A060FCF7AEF940010190002002902A
:104530004FF6FF700390049001A91648FCF71CFD8C
:1045400008B1FCF79CF9012006904003019000207F
:1045500002904FF6FF700390049001A90D48FCF7FC
:104560000BFD08B1FCF78BF90A48FDF79AF808B182
:10457000FCF785F902210748FCF744FC08B1FCF779
:104580007EF9642204490548FFF742FB0BB000BDE9
:1045900000640040480A0020D0000020C000002035
:1045A0000EB500200090019002900E480E49086060
:1045B0000846FDF7D9F808B1FCF761F90020009032
:1045C0000190002269460848FDF7A1F808B1FCF700
:1045D00056F9102269460448FDF799F808B1FCF72E
:1045E0004EF90EBD00740040700A002008B500BFEF
:1045F0000A48406940F0010008494861084640699E
:1046000000F00100009000BF00BF00220F210B202E
:10461000FDF7F4FB0B20FDF7E1FB08BD00100240A5
:1046200000B587B0142102A8FBF726FE00BF6C4836
:10463000406940F400206A4948610846406900F436
:104640000020019000BF00BF00BF0846406940F451
:10465000800048610846406900F48000019000BF76
:1046600000BF00BF0846406940F40030486108467A
:10467000406900F40030019000BF00BF00BF084651
:10468000406940F4802048610846406900F4802079
:10469000019000BF00BF00BF0846406940F4001011
:1046A00048610846406900F40010019000BF00BF57
:1046B00000BF0846406940F48010486108464069E0
:1046C00000F48010019000BF00BF00224FF4A15100
:1046D0004448FDF7C9FA00224CF277314248FDF711
:1046E000C3FA00224FF440714048FDF7BDFA0122A1
:1046F00011023F48FDF7B8FA002240213D48FDF77E
:10470000B3FA002204213A48FDF7AEFA4EF2CF3058
:10471000029000200390049002A93248FDF7BCF9F2
:104720000320029000200390049002A94FF09040D3
:10473000FDF7B2F94FF4A15002900120039002203E
:1047400004900020059002A92648FDF7A5F94CF237
:104750007730029001200390022004900020059001
:1047600002A92148FDF798F94FF44070029001200A
:104770000390022004900020059002A91B48FDF739
:104780008BF94FF480700290012003900490002078
:10479000059002A91648FDF77FF9402002900120FC
:1047A0000390022004900020059002A91148FDF713
:1047B00073F98020029000200390049002A90D4814
:1047C000FDF76AF904200290012003900220049072
:1047D0000020059002A90648FDF75EF907B000BD6C
:1047E0000010024000080048000400480010004883
:1047F000000C00480014004800B587B01C21684632
:10480000FBF73AFD1348144908604FF4B470486050
:104810000021114881604FF6FF71C16000210161E4
:1048200080218161FEF7B9FF08B1FCF728F830203C
:1048300000900020019002900490042269460648EE
:10484000FEF772FF08B1FCF71AF80348FEF74CFEBA
:1048500007B000BD00180040680B002000B587B00D
:104860001C216846FBF708FD1648174908604FF4FD
:10487000B47048600021144881604FF6FF71C16038
:104880000021016180218161FEF7DAFB08B1FBF7AD
:10489000F6FF0D48FEF781FF08B1FBF7F0FF30206F
:1048A0000090002001900290049000226946064882
:1048B000FEF73AFF08B1FBF7E2FF0348FEF714FEEC
:1048C00007B000BD001C0040B40B002000B587B04D
:1048D0001C216846FBF7D0FC1648174908604FF4C6
:1048E000B47048600021144881604FF6FF71C160C8
:1048F0000021016180218161FEF7A2FB08B1FBF775
:10490000BEFF0D48FEF749FF08B1FBF7B8FF3020A6
:104910000090002001900290049000226946064811
:10492000FEF702FF08B1FBF7AAFF0348FEF7DCFD24
:1049300007B000BD00200040000C002000B58FB083
:104940001C2108A8FBF798FC20216846FBF794FC83
:104950002148224908604FF4B470486000211F4884
:1049600081604FF6FF71C1600021016141618021CA
:104970008161FEF765FB08B1FBF781FF1748FEF781
:104980000CFF08B1FBF77BFF302008900020099056
:104990000A900B900C900D900E90002208A90F48E1
:1049A000FEF7C2FE08B1FBF76AFF002000900190FD
:1049B0000290039004904FF400500590002007905F
:1049C00069460648FEF7AEFA08B1FBF758FF034800
:1049D000FEF78AFD0FB000BD004401404C0C0020E2
:1049E00000B58DB0002009900A900B900C900790B4
:1049F00008901C216846FBF73FFC214821490860CC
:104A00004FF4B470486000211E4881604FF6FF717A
:104A1000C1600021016180218161FEF711FB08B1B5
:104A2000FBF72DFF4FF48050099009A91548FEF7B8
:104A300009FC08B1FBF723FF1248FEF7AEFE08B1F0
:104A4000FBF71DFF00200790089007A90D48FEF70F
:104A5000A3FA08B1FBF713FF30200090002001906B
:104A600002900490042269460648FEF75DFE08B1F4
:104A7000FBF705FF0348FEF737FD0DB000BD000052
:104A8000005C0140980C002000B58DB0002009901A
:104A90000A900B900C90079008901C216846FBF739
:104AA000EBFB4FF08040204908604FF4B470486041
:104AB00000211D4881604FF6FF71C1600021016136
:104AC00080218161FEF7BCFA08B1FBF7D8FE4FF4F4
:104AD0008050099009A91448FEF7B4FB08B1FBF710
:104AE000CEFE1148FEF759FE08B1FBF7C8FE0020C4
:104AF0000790089007A90C48FEF74EFA08B1FBF79B
:104B0000BEFE30200090002001900290049004220C
:104B100069460548FEF708FE08B1FBF7B0FE0248FB
:104B2000FEF7E2FC0DB000BD840A002000B58DB098
:104B3000002009900A900B900C90079008901C217F
:104B40006846FBF799FB2148214908604FF4B4708F
:104B5000486000211E4881604FF6FF71C16000214E
:104B6000016180218161FEF76BFA08B1FBF787FED6
:104B70004FF48050099009A91548FEF763FB08B16E
:104B8000FBF77DFE1248FEF708FE08B1FBF777FE43
:104B900000200790089007A90D48FEF7FDF908B11D
:104BA000FBF76DFE302000900020019002900490F1
:104BB0000C2269460648FEF7B7FD08B1FBF75FFE19
:104BC0000348FEF791FC0DB000BD0000000400405A
:104BD000D00A002000B58DB0002009900A900B90FB
:104BE0000C90079008901C216846FBF745FB204875
:104BF000204908604FF4B470486000211D4881606E
:104C0000491EC1600021016180218161FEF718FA0F
:104C100008B1FBF734FE4FF48050099009A91548FC
:104C2000FEF710FB08B1FBF72AFE1248FEF7B5FDB0
:104C300008B1FBF724FE00200790089007A90D4853
:104C4000FEF7AAF908B1FBF71AFE30200090002009
:104C5000019002900490002269460648FEF764FD28
:104C600008B1FBF70CFE0348FEF73EFC0DB000BD9B
:104C7000000C00401C0B002010B50E480E490860C7
:104C80004FF4E130486000210B488160C160016150
:104C90000C21416100218161C1610162002006494E
:104CA0004862002211460448FDF750F808B1FBF7AE
:104CB000E6FD10BD00380140E40C002000BFFEE717
:104CC00010B51B48007890B91A48007878B91A488E
:104CD000007860B91948007848B919484488E01745
:104CE00004EB90708110002000F036F804E01448C6
:104CF0004188002000F030F81248007890B912483E
:104D0000007878B91148007860B91148007848B93E
:104D100010484488E01704EB90708110012000F0E7
:104D20001BF804E00B484188012000F015F810BD85
:104D30006C0E00207C0E00208C0E00209C0E0020AB
:104D40000C0F00202C0E00203C0E00204C0E0020EA
:104D50005C0E0020AC0E002070B504460D46C5EB7D
:104D6000053040F6E441B0FBF1F6012C0AD13346A0
:104D7000082200210A48FCF743FD00210848FCF7FF
:104D800055FD0AE04CB93346082210210448FCF7CF
:104D900037FD10210248FCF749FD012070BD0000DD
:104DA000700A002030B58DB004460D462022164909
:104DB00005A8FBF748FA144B20330FCBCDE90323AA
:104DC000CDE90101082C02DC012D04D01DB14FF00A
:104DD000FF300DB030BD55B1621E01AB33F812107B
:104DE00005AB53F822000022FCF73EFF09E0621EEB
:104DF00001AB33F8121005AB53F822000122FCF787
:104E000033FF0120E5E70000846D000830B58DB068
:104E100004460D462022164905A8FBF714FA144B48
:104E200020330FCBCDE90323CDE90101082C02DCAF
:104E3000012D04D01DB14FF0FF300DB030BD55B184
:104E4000621E01AB33F8121005AB53F822000022AA
:104E5000FCF70AFF09E0621E01AB33F8121005AB44
:104E600053F822000122FCF7FFFE0120E5E70000D5
:104E7000546D000814488088401C134988801348EA
:104E80008088401C1149888011488088401C104946
:104E9000888010488088401C0E4988800E48808891
:104EA000401C0D4988800D488088401C0B49888033
:104EB0000B488088401C0A4988800A488088401C2A
:104EC00008498880704700002C0E00203C0E00200E
:104ED0004C0E00205C0E00206C0E00207C0E00208A
:104EE0008C0E00209C0E0020F0B58FB000200D909D
:104EF0000E9002214FF09040FCF7AEFE8DF8350089
:104F00000821A148FCF7A8FE8DF8360004219E4830
:104F1000FCF7A2FE8DF8370002219B48FCF79CFEAF
:104F20008DF8380000200B900C904FF400519648FB
:104F3000FCF792FE8DF82D004FF480419248FCF76B
:104F40008BFE8DF82E004FF400418F48FCF784FE55
:104F50008DF82F0001218C48FCF77EFE8DF8300083
:104F600014228A4906A8FBF76EF9142287491431E6
:104F700001A8FBF768F900274FF47A75322601245F
:104F8000FDE006A850F82400407801280FD10DA8B4
:104F9000005D60B92046FEF7D3FE002006A951F857
:104FA0002410487006A951F82410C86067E006A8CC
:104FB00050F82400407802282ED10DA8005D58BB7F
:104FC0002046FEF7BDFE002006A951F82410C86057
:104FD00006A850F824008068002805DA06A850F8D2
:104FE00024008068404203E006A850F8240080684E
:104FF000074606AA52F8242092684FF0010C0CEBE9
:10500000E2736908E0B23A46FEF7D8FE032006A92B
:1050100051F82410487032E006A850F82400407877
:1050200003280AD106A850F82400007828B90020E7
:1050300006A951F82410487021E006A850F8240071
:10504000407801281BD10DA8005DC0B106A850F81A
:105050002400818864207043814210DD002006A96D
:1050600051F8241088802046FEF76AFE002006A929
:1050700051F824104870E0B2042100F095FE01A818
:1050800050F82400407801280FD10BA8005D60B9CA
:10509000204600F087FA002001A951F82410C860CA
:1050A00001A951F82410487068E001A850F82400C4
:1050B000407802282ED10BA8005D58BB204600F096
:1050C00071FA002001A951F82410C86001A850F815
:1050D00024008068002805DA01A850F824008068C0
:1050E000404203E001A850F824008068074601AA66
:1050F00052F8242092684FF0010C0CEBE27369081F
:10510000E0B23A4600F08CFA032001A951F82410CD
:10511000487033E001A850F82400407803280AD1F1
:1051200001A850F82400007828B9002001A951F8FE
:105130002410487022E001A850F82400407801288B
:105140001CD10BA8005DC8B101A850F824008188CB
:1051500064207043814211DD002001A951F8241020
:105160008880204600F01EFA002001A951F8241082
:105170004870E11CC8B2042100F016FE641C052C26
:10518000FFF6FFAE0FB0F0BD00080048506E0008FB
:1051900000B589B0242216496846FBF754F801206F
:1051A00021E0144909685DF820205160124909681E
:1051B0005DF820209160114A118801EBD1725210E4
:1051C0005DF820305A800E4909685DF82020116191
:1051D0000C4909685DF8202051616FF01D015DF8F0
:1051E0002020D160401C0928DBDB09B000BD000095
:1051F000B46D0008100000201400002018000020EA
:105200001C0000202000002030B593B02422494922
:105210000AA8FBF718F824224649243101A8FBF715
:1052200012F8444848300068009001247CE00AA845
:1052300050F824000078D0B901A850F82400007874
:10524000012814D1E0B28DF8020000208DF803008F
:105250004FF48060FBF716FB05462A46042168469A
:10526000FBF7EEF8E0B2002100F09EFD5BE00AA83B
:1052700050F824000078C8B901A850F8240000783C
:10528000042813D1E0B28DF8020010208DF803003D
:105290008001FBF7F7FA05462A4604216846FBF72A
:1052A000CFF8E0B2002100F07FFD3CE00AA850F802
:1052B00024000078C8B901A850F824000078032819
:1052C00013D1E0B28DF8020002208DF803004002F5
:1052D000FBF7D8FA05462A4604216846FBF7B0F8E2
:1052E000E0B2002100F060FD1DE00AA850F82400A3
:1052F0000078C0B901A850F824000078022812D123
:10530000E0B28DF8020001208DF803008002FBF767
:10531000B9FA05462A4604216846FBF791F8E0B23F
:10532000002100F041FD641C092C80DB002013B03B
:1053300030BD00009C6E000810B50446A078B0B9DE
:10534000E078A0B93D480269406881B20023184660
:10535000FEF7F6FF3A480269406881B2002318461A
:1053600000F024FC0221002000F01EFD63E0A07884
:10537000B0B9E078A0B131484269406881B20023F9
:105380001846FEF7DDFF2E484269406881B20023CF
:10539000184600F00BFC0321002000F005FD4AE058
:1053A000A07804280EDCE07860B9244B1A695B68A9
:1053B00099B2A0780023FEF7C3FFA078022100F085
:1053C000F3FC38E0A07804280EDCE07860B11B4BD9
:1053D0005A695B6899B2A0780023FEF7B1FFA07804
:1053E000032100F0E1FC26E0A078042810DDE0783D
:1053F00070B9134B1A695B6899B2A3781B1FD8B2B6
:10540000002300F0D3FBA078022100F0CDFC12E0D5
:10541000A07804280FDDE07868B1094B5A695B6811
:1054200099B2A3781B1FD8B2002300F0BFFBA0786D
:10543000032100F0B9FC002010BD0000AC0E0020DC
:105440000C0F002000BFFEE770470146D1E90002C3
:10545000904201D1012070470020FCE701464868D6
:10546000401C8A68B0FBF2F302FB13000A6890420A
:1054700001D1012070470020FCE700002DE9F04138
:105480000446002500260027A846052C7CD2DFE82C
:1054900004F040031221300004213E48FEF70AFBCD
:1054A0000546681C80B23B49096888630421394875
:1054B000FEF7C8F969E004213748FEF7FBFA064613
:1054C000701C80B234490968886304213248FEF7B1
:1054D000B9F95AE004213148FEF7ECFA0746781C86
:1054E00080B22E490968886304212C48FEF7AAF986
:1054F0004BE00C212A48FEF7DDFA804608F1010056
:1055000080B22749096808640C212548FEF79AF9FA
:105510003BE004211F48FEF7CDFA054604211E4852
:10552000FEF7C8FA064604211C48FEF7C3FA0746F0
:105530000C211B48FEF7BEFA8046681C80B2154954
:105540000968886304211348FEF77CF9701C80B257
:1055500011490968886304210F48FEF773F9781C24
:1055600080B20E490968886304210C48FEF76AF985
:1055700008F1010080B20A49096808640C21084852
:10558000FEF760F901E0FFE700BF00BF0020BDE8C3
:10559000F0810000680B0020980C0020840A002095
:1055A000D00A002010B50446052C29D2DFE804F00B
:1055B0001703080D120004211548FEF7F5F920E045
:1055C00004211448FEF7F0F91BE004211248FEF70D
:1055D000EBF916E00C211148FEF7E6F911E0042181
:1055E0000B48FEF7E1F904210A48FEF7DDF9042132
:1055F0000948FEF7D9F90C210848FEF7D5F900E073
:1056000000BF00BFE0B2002100F0A6FA002010BDEC
:10561000680B0020980C0020840A0020D00A00208B
:105620002DE9F0412DED028B04460D4617469846B4
:105630009FEDCE0AF0EE408A9FEDCC0AB0EE408A94
:105640005FB142F21070854207D8042C05DCB8F136
:10565000010F07D0B8F1000F04D00020BDEC028B81
:10566000BDE8F0810A2D00D20A25002C79D000EE89
:10567000105AB8EE400AF7EE000A80EE801AF0EEFB
:10568000418A9FEDBB0AC8EE800AB0EE608ABCEE8C
:10569000C80A10EE100A4108601E00EB4000B54A2F
:1056A00002EBC0004161B5F57A7F07D36421601E2B
:1056B00000EB400002EBC00041600CE0BCEEC80A09
:1056C00010EE100A40084100601E00EB4000A94A9D
:1056D00002EBC00041600021601E00EB4000A54AC3
:1056E00002EBC000C160601E00EB4000114601EB00
:1056F000C00007610321601E00EB400002F830107B
:10570000211DC8B24146FFF781FB211DC8B201210E
:10571000FFF748FB0F2F06DA0121601E00EB400067
:10572000944A02F83010052097FBF0F0C82190FB56
:10573000F1F0C1B2601E00EB40008E4A02EBC000E7
:105740004170601E00EB4000114601EBC000407844
:1057500040B90821601E00EB400002EBC000417020
:1057600010E04DE0601E00EB4000824901EBC000FC
:1057700040780830C1B2601E00EB40007D4A02EB69
:10578000C00041700A2D15D3B5F5FA6F12D8142157
:10579000601E00EB4000774A02EBC0000181B5FBC0
:1057A000F7F0401C81B2601E00EB400002EBC0002D
:1057B000418118E0B5F5FA6F15D942F210708542B3
:1057C00011D80121601E00EB40006A4A02EBC000C4
:1057D0000181B5FBF7F0401D81B2601E00EB400077
:1057E00002EBC0004181601E00EB4000624A12F8EB
:1057F0003010204600F0B0F92046FFF73FFEB3E03E
:105800000026A7E000EE105AB8EE400AF7EE000AB4
:1058100080EE801AF0EE418A9FED550AC8EE800AAC
:10582000B0EE608ABCEEC80A10EE100A400806EB23
:105830004601504A02EBC1014861B5F57A7F06D3B3
:10584000642006EB460102EBC10148600BE0BCEEB0
:10585000C80A10EE100A4008400006EB4601454A0F
:1058600002EBC1014860002006EB4601414A02EB11
:10587000C101C86006EB4600114601EBC00007619C
:10588000032006EB460102F83100711DC8B2414603
:10589000FFF7BCFA711DC8B20121FFF783FA0F2F81
:1058A00005DA022006EB4601324A02F831000520F3
:1058B00097FBF0F0C82190FBF1F006EB46012D4A72
:1058C00002EBC101487006EB4600114601EBC00037
:1058D000407830B9082006EB460102EBC101487060
:1058E0000CE006EB4600234901EBC000407808308D
:1058F00006EB46011F4A02EBC10148700A2D12D384
:10590000B5F5FA6F0FD8142006EB4601194A02EBE1
:10591000C1010881B5FBF7F0401C06EB460102EB24
:10592000C101488115E0B5F5FA6F12D942F2107045
:1059300085420ED8012006EB46010E4A02EBC1015A
:105940000881B5FBF7F00A3006EB460102EBC10116
:105950004881761C042EFFF655AF0321204600F047
:10596000FBF80020FFF78AFD002077E6000000002A
:10597000ACC5A736CC0D00206C0D00202DE9F04100
:105980008CB004460F461646984600200A900B90AD
:105990004FF400514248FCF75FF98DF829004FF4AD
:1059A00080413F48FCF758F98DF82A004FF4004138
:1059B0003B48FCF751F98DF82B0001213848FCF7E2
:1059C0004BF98DF82C001422364905A8FAF73BFC58
:1059D0001422344914316846FAF735FC042C04DDEE
:1059E0004FF0FF300CB0BDE8F0815CB30AA8005D59
:1059F00028B901205DF8241008700020F2E705A8FE
:105A000050F82400407848B9002005A951F8241026
:105A10008880012005A951F82410487046B105A8D6
:105A200050F824008660022005A951F8241048701F
:105A300043461D48026802F5487239462046FFF782
:105A4000EFFD2AE0012526E00AA8405D20B90120EB
:105A50005DF8251008701DE0012005A951F82510FA
:105A60004870002005A951F82510888046B105A886
:105A700050F825008660022005A951F825104870CD
:105A8000E8B2434608490A6802F548723946FFF70A
:105A9000C7FD00BF6D1C052DD6DB0020A2E700006E
:105AA00000080048006E00082000002070B5054680
:105AB0000C462078062847D2DFE800F0460640036F
:105AC0002C1F0120207040E0207B00F0010018B95D
:105AD00021896068401A606061696068884201D805
